:100000000C9462000C948A000C948A000C948A0070
:100010000C948A000C948A000C948A000C948A0038
:100020000C948A000C948A000C948A000C948A0028
:100030000C948A000C948A000C948A000C948A0018
:100040000C945E050C948A000C94CE050C94A805C3
:100050000C948A000C948A000C948A000C948A00F8
:100060000C948A000C948A000000000023002600F3
:10007000290000000000240027002A0000000000E2
:10008000250028002B0004040404040404040202D4
:100090000202020203030303030301020408102007
:1000A0004080010204081020010204081020000012
:1000B0000008000201000003040700000000000027
:1000C0000000480811241FBECFEFD8E0DEBFCDBF2F
:1000D00011E0A0E0B1E0E0E6F4E102C005900D928D
:1000E000A835B107D9F722E0A8E5B1E001C01D921B
:1000F000A033B207E1F710E0C2E6D0E004C02197D8
:10010000FE010E94D008C136D107C9F70E9400063F
:100110000C942E0A0C9400009FB7F894A5E6B1E069
:100120009196ED91FC919297808190962C91822BE3
:1001300080839FBF08959FB7F894A5E6B1E05E96CF
:10014000ED91FC915F9780815D962C91822B80834D
:100150009FBF08959FB7F894A5E6B1E05B96ED9137
:10016000FC915C9780815A962C91822B80839FBF53
:1001700008958F929F92AF92BF92CF92DF92EF92AB
:10018000FF920F931F93CF93DF93D0E0C0E0D12C69
:10019000082F880F110B8BE0E82EF12C812C912C6D
:1001A00054018394CC2EC8010C2E02C095958795DE
:1001B0000A94E2F780FF3FC00E949B008FB7F8943B
:1001C000E0918001F0918101208190917F019095D3
:1001D000922390838FBFC7010197F1F7E0918901C6
:1001E000F0918A01808190918801892351F0D50195
:1001F000C40104C0880F991FAA1FBB1FCA94D2F75D
:10020000D82A0E94AA002196C830D10559F60E942A
:100210009B0087E090E00197F1F78D2DDF91CF9162
:100220001F910F91FF90EF90DF90CF90BF90AF9014
:100230009F908F9008959FB7F894E0918301F0917B
:1002400084012081809182018095822380839FBFD9
:10025000B5CF9FB7F894A5E6B1E09196ED91FC91EA
:100260009297208190968C918095822380839FBF66
:10027000089590E0FC01E255FF4F2491FC01E65601
:10028000FF4F3491FC01EA57FF4FE491EE23C9F090
:10029000222339F0233001F1A8F4213019F1223062
:1002A00029F1F0E0EE0FFF1FE458FF4FA591B49144
:1002B0008FB7F894EC91611126C030953E233C93A2
:1002C0008FBF08952730A9F02830C9F0243049F7AE
:1002D000809180008F7D03C0809180008F77809314
:1002E0008000DFCF84B58F7784BDDBCF84B58F7D71
:1002F000FBCF8091B0008F778093B000D2CF8091F8
:10030000B0008F7DF9CF3E2BDACFCF93DF9390E013
:10031000FC01E656FF4F24918A579F4FFC018491C0
:100320008823D1F090E0880F991FFC01EE58FF4F11
:10033000A591B491FC01E458FF4FC591D49161118E
:100340000EC09FB7F8948C91E22FE0958E238C938A
:100350002881E223E8839FBFDF91CF9108958FB773
:10036000F894EC91E22BEC938FBFF6CF1F93CF93D1
:10037000DF93182FEB0161E00E948501209739F48B
:1003800060E0812FDF91CF911F910C943901CF3F15
:10039000D10511F461E0F5CFE12FF0E0E255FF4F18
:1003A000E491E33031F140F4E130B1F0E230E1F0DA
:1003B000C038D1057CF7E4CFE73029F1E83059F1B6
:1003C000E430B1F780918000806280938000D09308
:1003D0008B00C0938A0004C084B5806884BDC7BD0B
:1003E000DF91CF911F91089584B5806284BDC8BD0F
:1003F000F7CF80918000806880938000D09389003F
:10040000C0938800EDCF8091B00080688093B000E9
:10041000C093B300E5CF8091B00080628093B000BC
:10042000C093B400DDCF3FB7F89480915D01909107
:100430005E01A0915F01B091600126B5A89B05C047
:100440002F3F19F00196A11DB11D3FBFBA2FA92F53
:10045000982F8827BC01CD01620F711D811D911D50
:1004600042E0660F771F881F991F4A95D1F70895BC
:100470008F929F92AF92BF92CF92DF92EF92FF92B4
:100480006B017C010E9413024B015C01C114D10479
:10049000E104F104B9F00E941302681979098A098C
:1004A0009B09683E73408105910580F321E0C21AE3
:1004B000D108E108F10888EE880E83E0981EA11C9F
:1004C000B11CE4CFFF90EF90DF90CF90BF90AF9042
:1004D0009F908F900895EF92FF920F931F93CF9369
:1004E000DF937C01062F0E94290187E090E00197AD
:1004F000F1F7E70110E0CE018E199F0980179107EF
:1005000024F489910E94B900F6CF0E948C0060917A
:100510008F0170E090E080E0DF91CF911F910F910B
:10052000FF90EF900C94380265E081E291E00E9428
:100530006B0269E088E191E00E946B028091910179
:10054000882329F065E083E191E00E946B028091AD
:100550009201882329F069E08AE091E00E946B0211
:1005600069E081E091E00C946B02AF92BF92CF9270
:10057000DF92EF92FF920F931F93CF93DF936C0163
:100580007B018B01040F151FEB015E01AE18BF0844
:10059000C017D10759F06991D601ED91FC910190F6
:1005A000F081E02DC6010995892B79F7C501DF910E
:1005B000CF911F910F91FF90EF90DF90CF90BF9060
:1005C000AF900895FC01538D448D252F30E0842F8A
:1005D00090E0821B930B541710F0CF96089501976B
:1005E0000895FC01918D828D981761F0A28DAE0F58
:1005F000BF2FB11D5D968C91928D9F5F9F73928FDF
:1006000090E008958FEF9FEF0895FC01918D828D0A
:10061000981731F0828DE80FF11D858D90E00895D7
:100620008FEF9FEF0895FC01918D228D892F90E02F
:10063000805C9F4F821B91098F739927089583E9EE
:1006400091E00E94130321E0892B09F420E0822F1E
:10065000089580E090E0892B29F00E941F0381110A
:100660000C9400000895FC01A48DA80FB92FB11DB2
:10067000A35ABF4F2C91848D90E001968F739927D8
:10068000848FA689B7892C93A089B1898C918370B6
:1006900080648C93938D848D981306C00288F389AF
:1006A000E02D80818F7D80830895EF92FF920F93DC
:1006B0001F93CF93DF93EC0181E0888F9B8D8C8D0E
:1006C00098131AC0E889F989808185FF15C09FB702
:1006D000F894EE89FF896083E889F98980818370C5
:1006E000806480839FBF81E090E0DF91CF911F9174
:1006F0000F91FF90EF900895F62E0B8D10E00F5F95
:100700001F4F0F731127E02E8C8D8E110CC00FB66A
:1007100007FCFACFE889F989808185FFF5CFCE0102
:100720000E943303F1CFEB8DEC0FFD2FF11DE35A47
:10073000FF4FF0829FB7F8940B8FEA89FB89808185
:100740008062CFCFCF93DF93EC01888D8823B9F0FF
:10075000AA89BB89E889F9898C9185FD03C08081CC
:1007600086FD0DC00FB607FCF7CF8C9185FFF2CF49
:10077000808185FFEDCFCE010E943303E9CFDF9169
:10078000CF9108950F931F93CF93DF938B01EB01CC
:1007900077FF04C0CC27DD27C61BD70B8823B1F019
:1007A00060E070E017FFBE0186E00E94B601612F95
:1007B000660F660B062E000C770B6C237D2389E0F9
:1007C000DF91CF911F910F910C94B60160E070E022
:1007D00017FFBE0183E00E94B601612F660F660B12
:1007E000062E000C770B6C237D2385E0E9CFFC01FE
:1007F00001900020E9F73197AF01481B590BBC016C
:1008000083E991E00C94B5028F929F92AF92BF92D0
:100810000F931F93CF93DF93CDB7DEB7A1970FB69A
:10082000F894DEBF0FBECDBF19A2423008F44AE0F3
:100830008E010F5D1F4F842E912CB12CA12CA50190
:1008400094010E949F08E62FB901CA01EA30F4F42E
:10085000E05DD801EE938D01232B242B252B79F716
:1008600090E080E0109719F0CD010E94F703A19667
:100870000FB6F894DEBF0FBECDBFDF91CF911F91B1
:100880000F91BF90AF909F908F900895E95CE1CF5A
:10089000CF92DF92EF92FF92CF93DF936B017C01B7
:1008A0006DE283E991E00E945503EC01662777270A
:1008B000CB016C197D098E099F094AE00E9404044E
:1008C0008C0F9D1FDF91CF91FF90EF90DF90CF9025
:1008D00008956F927F928F929F92AF92BF92CF9224
:1008E000DF92EF92FF921F93CF93DF93CDB7DEB7E6
:1008F00029970FB6F894DEBF0FBECDBF2FB7F8947F
:100900006091610170916201809163019091640135
:100910002FBFC0908B01D0908C01E0908D01F090A2
:100920008E016C197D098E099F090E9477096B0160
:100930007C0120E030E04AEF53E40E94290A1816B7
:1009400014F40E94940260918F0170E090E080E0C6
:100950000E9479094B015C01AC019B01C701B60102
:100960000E94430987FF0AC0A7019601C501B4018F
:100970000E94D6080E9448090E943802FE01339660
:1009800087E0DF011D928A95E9F781E0898382E49F
:100990008A8315E027E0C22ED12C7E01BAE0EB0E4F
:1009A000F11C3AE7A32E31E0B32E0E949B000E9477
:1009B000AA000E942901C6010197F1F7FE013196B4
:1009C0003F0195E6892E91E0992ED3018D913D014D
:1009D0000E94B900F40181934F016E147F04A9F7BE
:1009E00080916601893769F48EE6882E81E0982E21
:1009F00080E00E94B900D4018D934D01AA16BB0678
:100A0000B9F70E948C0080916601807F803761F089
:100A10000E94940260918F0170E090E080E00E945B
:100A20003802115009F0C1CF80916601807F803774
:100A300039F080918F018A3018F48F5F80938F0195
:100A400080917D0190917E0190937C0180937B0148
:100A5000809168019091690190937E0180937D015E
:100A60002FB7F8948091610190916201A091630188
:100A7000B09164012FBF80938B0190938C01A09360
:100A80008D01B0938E0190916601907F81E0903747
:100A900009F080E029960FB6F894DEBF0FBECDBFF7
:100AA000DF91CF911F91FF90EF90DF90CF90BF909B
:100AB000AF909F908F907F906F9008951F920F92AC
:100AC0000FB60F9211242F933F938F939F93AF9361
:100AD000BF938091610190916201A0916301B091F7
:100AE000640130915C0123E0230F2D3758F5019606
:100AF000A11DB11D20935C0180936101909362015F
:100B0000A0936301B093640180915D0190915E01B7
:100B1000A0915F01B09160010196A11DB11D80936C
:100B20005D0190935E01A0935F01B0936001BF915E
:100B3000AF919F918F913F912F910F900FBE0F908A
:100B40001F90189526E8230F0296A11DB11DD2CF44
:100B50001F920F920FB60F9211242F933F934F9332
:100B60005F936F937F938F939F93AF93BF93EF9315
:100B7000FF9383E991E00E943303FF91EF91BF91CE
:100B8000AF919F918F917F916F915F914F913F9125
:100B90002F910F900FBE0F901F9018951F920F92DC
:100BA0000FB60F9211242F938F939F93EF93FF9380
:100BB000E091A301F091A4018081E091A901F0915D
:100BC000AA0182FD1BC090818091AC018F5F8F7361
:100BD0002091AD01821741F0E091AC01F0E0ED56BB
:100BE000FE4F958F8093AC01FF91EF919F918F9174
:100BF0002F910F900FBE0F901F9018958081F4CF0A
:100C0000CF93DF93CDB7DEB729970FB6F894DEBF49
:100C10000FBECDBF789484B5826084BD84B58160F9
:100C200084BD85B5826085BD85B5816085BD8091B7
:100C30006E00816080936E0010928100809181002F
:100C40008260809381008091810081608093810027
:100C5000809180008160809380008091B1008460E9
:100C60008093B1008091B00081608093B00080914A
:100C70007A00846080937A0080917A008260809309
:100C80007A0080917A00816080937A0080917A0066
:100C9000806880937A001092C10061E083E00E9436
:100CA000850161E086E00E94850161E085E00E94A7
:100CB000850161E089E00E948501E091A301F09146
:100CC000A40182E08083E0919F01F091A001108255
:100CD000E091A101F091A2018FEC80831092AB0111
:100CE000E091A701F091A80186E08083E091A50141
:100CF000F091A601808180618083E091A501F0914F
:100D0000A601808188608083E091A501F091A60111
:100D1000808180688083E091A501F091A6018081A7
:100D20008F7D808370E9272E70E0372EE6EA4E2E05
:100D3000E0E05E2EF2E96F2EF0E07F2EA7E0CA2EF3
:100D4000D12CB1E48B2EB1E09B2E80910001882341
:100D500009F4D3C064E670E080E090E00E943802BD
:100D6000E7EAF0E0849180937F01E3E9F0E0849189
:100D7000E82FF0E0EE0FFF1FE458FF4F85919491AC
:100D80009093810180938001E5EAF0E08491809363
:100D90008201E1E9F0E08491E82FF0E0EE0FFF1F1F
:100DA000E458FF4F8591949190938401809383013F
:100DB000E4EAF0E0849180938501F1018491E82FC9
:100DC000F0E0EE0FFF1FE458FF4F85919491909350
:100DD000870180938601F201849180938801F30159
:100DE0008491E82FF0E0EE0FFF1FE859FF4F859147
:100DF000949190938A018093890161E08DE00E9433
:100E0000850161E08AE00E94850161E08BE00E943B
:100E1000850160E08CE00E94850161E08CE00E9429
:100E200039010E949B000E94AA000E9469040E944E
:100E30006904809166019FEB980F923028F0833708
:100E400019F0893709F048C081E080938F010BE0E9
:100E500010E065E081E291E00E946B02C60101971B
:100E6000F1F70E949B000E94AA000E942901C6017E
:100E70000197F1F728E3E22E21E0F22ECE01019650
:100E80005C01F70181917F010E94B900F501819316
:100E90005F018E149F04A9F70E948C008C818093BF
:100EA000900169E088E191E00E946B0269E081E0D5
:100EB00091E00E946B020E94690480916601833771
:100EC00009F4D1C00150110909F4CFC080918F01FC
:100ED0008F5F80938F01BDCF81E091E0811101C0D0
:100EE00090E090930001811130CF81E491E00E9465
:100EF000F7038BE491E00E94F703812C912C5401BD
:100F00008A9490E0C92E90E0D92E0E946904109135
:100F10006D0120916C0130E0A4E6B0E00E94C108B0
:100F2000A50194010E947508225331094109510914
:100F300030935B0120935A01A12FB0E024ED3EEFE6
:100F40004FEF5FEF0E949408A50194010E9475087D
:100F50002A563F4F4F4F5F4F30935901209358010E
:100F60008EE491E00E94F70360915A0170915B0159
:100F7000072E000C880B990B97FF79C00E9448043C
:100F800082E591E00E94F703609158017091590148
:100F9000072E000C880B990B97FF6DC00E94480428
:100FA0008BE491E00E94F7030091580110915901E0
:100FB000E0905A01F0905B01B80117FD60C06E1916
:100FC0007F0980E00E94C203B8016E0D7F1D81E0A1
:100FD0000E94C20380917D0190917E0120917B014E
:100FE00030917C01392735FB222720F9222379F122
:100FF0008095909595FB882780F9882341F16FEFC4
:1010000070E086E00E94B6016FEF70E089E00E9418
:10101000B6016FEF70E083E00E94B6016FEF70E001
:1010200085E00E94B60120917D0130917E01809182
:101030007B0190917C01932795FB882780F920956F
:10104000309535FB222720F982238111FECFC11470
:10105000D10409F45ACF0E941F03882309F455CF05
:101060000E94000052CF80E038CF82E036CF4AE0C5
:101070000E94040485CF4AE00E94040491CF6E0DC3
:101080007F1D80E00E94C203B8016E197F099FCFC7
:10109000E3E9F1E01382128288EE93E0A0E0B0E091
:1010A00084839583A683B7838AE291E091838083CA
:1010B00085EC90E09587848784EC90E0978786871D
:1010C00080EC90E0918B808B81EC90E0938B828B15
:1010D00082EC90E0958B848B86EC90E0978B868BEE
:1010E000118E128E138E148E0895052E97FB1EF40A
:1010F00000940E948C0857FD07D00E949F0807FCAF
:1011000003D04EF40C948C08509540953095219561
:101110003F4F4F4F5F4F0895909580957095619523
:101120007F4F8F4F9F4F08950E94C108A59F900D3C
:10113000B49F900DA49F800D911D11240895A1E2EC
:101140001A2EAA1BBB1BFD010DC0AA1FBB1FEE1F41
:10115000FF1FA217B307E407F50720F0A21BB30B8C
:10116000E40BF50B661F771F881F991F1A9469F708
:1011700060957095809590959B01AC01BD01CF0164
:101180000895A29FB001B39FC001A39F700D811D60
:101190001124911DB29F700D811D1124911D089580
:1011A000EE0FFF1F0590F491E02D09945058BB27D6
:1011B000AA270E94EE080C94EF090E94E10938F07A
:1011C0000E94E80920F039F49F3F19F426F40C94AA
:1011D000DE090EF4E095E7FB0C94D809E92F0E9494
:1011E000000A58F3BA17620773078407950720F0BF
:1011F00079F4A6F50C94220A0EF4E0950B2EBA2F82
:10120000A02D0B01B90190010C01CA01A00111240C
:10121000FF27591B99F0593F50F4503E68F11A16B8
:10122000F040A22F232F342F4427585FF3CF469549
:1012300037952795A795F0405395C9F77EF41F166B
:10124000BA0B620B730B840BBAF09150A1F0FF0F35
:10125000BB1F661F771F881FC2F70EC0BA0F621F21
:10126000731F841F48F4879577956795B795F79511
:101270009E3F08F0B0CF9395880F08F09927EE0FA6
:101280009795879508950E94B40908F481E0089520
:101290000E94080A88F09F5798F0B92F9927B751F4
:1012A000B0F0E1F0660F771F881F991F1AF0BA950A
:1012B000C9F714C0B13091F00E94220AB1E008953C
:1012C0000C94220A672F782F8827B85F39F0B93F2E
:1012D000CCF3869577956795B395D9F73EF49095BD
:1012E0008095709561957F4F8F4F9F4F0895E8943B
:1012F00009C097FB3EF490958095709561957F4F5E
:101300008F4F9F4F9923A9F0F92F96E9BB2793950B
:10131000F695879577956795B795F111F8CFFAF41B
:10132000BB0F11F460FF1BC06F5F7F4F8F4F9F4F4C
:1013300016C0882311F096E911C0772321F09EE8AA
:10134000872F762F05C0662371F096E8862F70E010
:1013500060E02AF09A95660F771F881FDAF7880FEA
:101360009695879597F90895990F0008550FAA0B40
:10137000E0E8FEEF16161706E807F907C0F01216A8
:101380001306E407F50798F0621B730B840B950BAB
:1013900039F40A2661F0232B242B252B21F4089500
:1013A0000A2609F4A140A6958FEF811D811D08959D
:1013B00097F99F6780E870E060E008959FEF80EC08
:1013C000089500240A9416161706180609060895AB
:1013D00000240A9412161306140605060895092E11
:1013E0000394000C11F4882352F0BB0F40F4BF2B80
:1013F00011F460FF04C06F5F7F4F8F4F9F4F0895C0
:1014000057FD9058440F551F59F05F3F71F04795B5
:10141000880F97FB991F61F09F3F79F0879508959A
:10142000121613061406551FF2CF4695F1DF08C0B9
:10143000161617061806991FF1CF869571056105D6
:1014400008940895E894BB2766277727CB0197F97E
:1014500008950E94B40908F48FEF0895F894FFCF1F
:1014600001014300005A5A5A5A5A014F00FFFF0324
:10147000000000014D0000010144000103000000D4
:10148000000143000100000000005503B502E20224
:10149000A2031303F10205030145005A5A5A5A5A8E
:1014A0005A436F6E6E6563746564000D0A00583AA6
:0814B00020002C20593A200015
:00000001FF
